{
    "_format": "hh-sol-artifact-1",
    "contractName": "MyToken",
    "sourceName": "contracts/MyToken.sol",
    "abi": [
        {
            "inputs": [
                {
                    "internalType": "string",
                    "name": "_name",
                    "type": "string"
                },
                {
                    "internalType": "string",
                    "name": "_symbol",
                    "type": "string"
                }
            ],
            "stateMutability": "nonpayable",
            "type": "constructor"
        },
        {
            "anonymous": false,
            "inputs": [
                {
                    "indexed": true,
                    "internalType": "address",
                    "name": "from",
                    "type": "address"
                },
                {
                    "indexed": true,
                    "internalType": "address",
                    "name": "to",
                    "type": "address"
                },
                {
                    "indexed": false,
                    "internalType": "uint256",
                    "name": "amt",
                    "type": "uint256"
                }
            ],
            "name": "transferEvent",
            "type": "event"
        },
        {
            "inputs": [
                {
                    "internalType": "address",
                    "name": "",
                    "type": "address"
                }
            ],
            "name": "balanceOf",
            "outputs": [
                {
                    "internalType": "uint256",
                    "name": "",
                    "type": "uint256"
                }
            ],
            "stateMutability": "view",
            "type": "function"
        },
        {
            "inputs": [],
            "name": "decimal",
            "outputs": [
                {
                    "internalType": "uint256",
                    "name": "",
                    "type": "uint256"
                }
            ],
            "stateMutability": "view",
            "type": "function"
        },
        {
            "inputs": [],
            "name": "name",
            "outputs": [
                {
                    "internalType": "string",
                    "name": "",
                    "type": "string"
                }
            ],
            "stateMutability": "view",
            "type": "function"
        },
        {
            "inputs": [],
            "name": "symbol",
            "outputs": [
                {
                    "internalType": "string",
                    "name": "",
                    "type": "string"
                }
            ],
            "stateMutability": "view",
            "type": "function"
        },
        {
            "inputs": [
                {
                    "internalType": "address payable",
                    "name": "_from",
                    "type": "address"
                },
                {
                    "internalType": "address payable",
                    "name": "_to",
                    "type": "address"
                },
                {
                    "internalType": "uint256",
                    "name": "amount",
                    "type": "uint256"
                }
            ],
            "name": "tranferFrom",
            "outputs": [
                {
                    "internalType": "bool",
                    "name": "x",
                    "type": "bool"
                }
            ],
            "stateMutability": "payable",
            "type": "function"
        },
        {
            "inputs": [
                {
                    "internalType": "address payable",
                    "name": "_to",
                    "type": "address"
                },
                {
                    "internalType": "uint256",
                    "name": "amount",
                    "type": "uint256"
                }
            ],
            "name": "transfer",
            "outputs": [
                {
                    "internalType": "bool",
                    "name": "x",
                    "type": "bool"
                }
            ],
            "stateMutability": "payable",
            "type": "function"
        }
    ],
    "bytecode": "0x60806040526009600255678ac7230489e800006003553480156200002257600080fd5b5060405162000d8438038062000d848339818101604052810190620000489190620001ea565b816000908051906020019062000060929190620000c8565b50806001908051906020019062000079929190620000c8565b50600354600460003373ffffffffffffffffffffffffffffffffffffffff1673ffffffffffffffffffffffffffffffffffffffff1681526020019081526020016000208190555050506200038e565b828054620000d690620002fa565b90600052602060002090601f016020900481019282620000fa576000855562000146565b82601f106200011557805160ff191683800117855562000146565b8280016001018555821562000146579182015b828111156200014557825182559160200191906001019062000128565b5b50905062000155919062000159565b5090565b5b80821115620001745760008160009055506001016200015a565b5090565b60006200018f620001898462000291565b6200025d565b905082815260208101848484011115620001a857600080fd5b620001b5848285620002c4565b509392505050565b600082601f830112620001cf57600080fd5b8151620001e184826020860162000178565b91505092915050565b60008060408385031215620001fe57600080fd5b600083015167ffffffffffffffff8111156200021957600080fd5b6200022785828601620001bd565b925050602083015167ffffffffffffffff8111156200024557600080fd5b6200025385828601620001bd565b9150509250929050565b6000604051905081810181811067ffffffffffffffff821117156200028757620002866200035f565b5b8060405250919050565b600067ffffffffffffffff821115620002af57620002ae6200035f565b5b601f19601f8301169050602081019050919050565b60005b83811015620002e4578082015181840152602081019050620002c7565b83811115620002f4576000848401525b50505050565b600060028204905060018216806200031357607f821691505b602082108114156200032a576200032962000330565b5b50919050565b7f4e487b7100000000000000000000000000000000000000000000000000000000600052602260045260246000fd5b7f4e487b7100000000000000000000000000000000000000000000000000000000600052604160045260246000fd5b6109e6806200039e6000396000f3fe6080604052600436106100555760003560e01c806306fdde031461005a57806370a082311461008557806376809ce3146100c25780639264a169146100ed57806395d89b411461011d578063a9059cbb14610148575b600080fd5b34801561006657600080fd5b5061006f610178565b60405161007c919061075a565b60405180910390f35b34801561009157600080fd5b506100ac60048036038101906100a79190610634565b610206565b6040516100b9919061077c565b60405180910390f35b3480156100ce57600080fd5b506100d761021e565b6040516100e4919061077c565b60405180910390f35b6101076004803603810190610102919061065d565b610224565b604051610114919061073f565b60405180910390f35b34801561012957600080fd5b506101326103c6565b60405161013f919061075a565b60405180910390f35b610162600480360381019061015d91906106ac565b610454565b60405161016f919061073f565b60405180910390f35b60008054610185906108ca565b80601f01602080910402602001604051908101604052809291908181526020018280546101b1906108ca565b80156101fe5780601f106101d3576101008083540402835291602001916101fe565b820191906000526020600020905b8154815290600101906020018083116101e157829003601f168201915b505050505081565b60046020528060005260406000206000915090505481565b60025481565b600081600460008673ffffffffffffffffffffffffffffffffffffffff1673ffffffffffffffffffffffffffffffffffffffff16815260200190815260200160002054101561027257600080fd5b81600460008673ffffffffffffffffffffffffffffffffffffffff1673ffffffffffffffffffffffffffffffffffffffff168152602001908152602001600020546102bd9190610809565b600460008673ffffffffffffffffffffffffffffffffffffffff1673ffffffffffffffffffffffffffffffffffffffff1681526020019081526020016000208190555081600460008573ffffffffffffffffffffffffffffffffffffffff1673ffffffffffffffffffffffffffffffffffffffff168152602001908152602001600020600082825461034f91906107b3565b925050819055508273ffffffffffffffffffffffffffffffffffffffff168473ffffffffffffffffffffffffffffffffffffffff167f5d439cf3a1f6215b41908e5b0b300f39679a3ff1cc010691c1d4ec4d0e2a4ebb846040516103b3919061077c565b60405180910390a3600190509392505050565b600180546103d3906108ca565b80601f01602080910402602001604051908101604052809291908181526020018280546103ff906108ca565b801561044c5780601f106104215761010080835404028352916020019161044c565b820191906000526020600020905b81548152906001019060200180831161042f57829003601f168201915b505050505081565b600081600460003373ffffffffffffffffffffffffffffffffffffffff1673ffffffffffffffffffffffffffffffffffffffff1681526020019081526020016000205410156104a257600080fd5b81600460003373ffffffffffffffffffffffffffffffffffffffff1673ffffffffffffffffffffffffffffffffffffffff168152602001908152602001600020546104ed9190610809565b600460003373ffffffffffffffffffffffffffffffffffffffff1673ffffffffffffffffffffffffffffffffffffffff1681526020019081526020016000208190555081600460008573ffffffffffffffffffffffffffffffffffffffff1673ffffffffffffffffffffffffffffffffffffffff168152602001908152602001600020600082825461057f91906107b3565b925050819055508273ffffffffffffffffffffffffffffffffffffffff163373ffffffffffffffffffffffffffffffffffffffff167f5d439cf3a1f6215b41908e5b0b300f39679a3ff1cc010691c1d4ec4d0e2a4ebb846040516105e3919061077c565b60405180910390a36001905092915050565b6000813590506106048161096b565b92915050565b60008135905061061981610982565b92915050565b60008135905061062e81610999565b92915050565b60006020828403121561064657600080fd5b6000610654848285016105f5565b91505092915050565b60008060006060848603121561067257600080fd5b60006106808682870161060a565b93505060206106918682870161060a565b92505060406106a28682870161061f565b9150509250925092565b600080604083850312156106bf57600080fd5b60006106cd8582860161060a565b92505060206106de8582860161061f565b9150509250929050565b6106f181610861565b82525050565b600061070282610797565b61070c81856107a2565b935061071c818560208601610897565b6107258161095a565b840191505092915050565b6107398161088d565b82525050565b600060208201905061075460008301846106e8565b92915050565b6000602082019050818103600083015261077481846106f7565b905092915050565b60006020820190506107916000830184610730565b92915050565b600081519050919050565b600082825260208201905092915050565b60006107be8261088d565b91506107c98361088d565b9250827fffffffffffffffffffffffffffffffffffffffffffffffffffffffffffffffff038211156107fe576107fd6108fc565b5b828201905092915050565b60006108148261088d565b915061081f8361088d565b925082821015610832576108316108fc565b5b828203905092915050565b60006108488261086d565b9050919050565b600061085a8261086d565b9050919050565b60008115159050919050565b600073ffffffffffffffffffffffffffffffffffffffff82169050919050565b6000819050919050565b60005b838110156108b557808201518184015260208101905061089a565b838111156108c4576000848401525b50505050565b600060028204905060018216806108e257607f821691505b602082108114156108f6576108f561092b565b5b50919050565b7f4e487b7100000000000000000000000000000000000000000000000000000000600052601160045260246000fd5b7f4e487b7100000000000000000000000000000000000000000000000000000000600052602260045260246000fd5b6000601f19601f8301169050919050565b6109748161083d565b811461097f57600080fd5b50565b61098b8161084f565b811461099657600080fd5b50565b6109a28161088d565b81146109ad57600080fd5b5056fea264697066735822122063efc38bc57e46622b66ec383c0d942ffa9b80842a3914efd13dc71aad4c35d164736f6c63430008000033",
    "linkReferences": {},
    "deployedLinkReferences": {}
}